:020000040800F2
:1000000000200020E12500087D0800087F08000886
:1000100000000000000000000000000000000000E0
:10002000000000000000000000000000810800083F
:100030000000000000000000830800088508000898
:100040003126000831260008312600083126000834
:100050003126000831260008312600083126000824
:100060000000000031260008312600083126000873
:100070003126000831260008000000003126000863
:1000800000000000890800080000000000000000D7
:100090003126000800000000312600083126000843
:1000A00031260008312600083126000831260008D4
:1000B0003126000831260008000000000000000082
:1000C00010B5064C2378002B07D1054B002B02D02E
:1000D000044800E000BF0123237010BD0C00002085
:1000E000000000008C260008044B10B5002B03D044
:1000F0000349044800E000BF10BDC04600000000F6
:10010000100000208C260008002243088B4274D384
:1001100003098B425FD3030A8B4244D3030B8B4208
:1001200028D3030C8B420DD3FF22090212BA030C11
:100130008B4202D31212090265D0030B8B4219D3F2
:1001400000E0090AC30B8B4201D3CB03C01A524112
:10015000830B8B4201D38B03C01A5241430B8B425A
:1001600001D34B03C01A5241030B8B4201D30B0343
:10017000C01A5241C30A8B4201D3CB02C01A52416A
:10018000830A8B4201D38B02C01A5241430A8B422D
:1001900001D34B02C01A5241030A8B4201D30B0216
:1001A000C01A5241CDD2C3098B4201D3CB01C01A30
:1001B000524183098B4201D38B01C01A524143093A
:1001C0008B4201D34B01C01A524103098B4201D328
:1001D0000B01C01A5241C3088B4201D3CB00C01A95
:1001E000524183088B4201D38B00C01A524143080D
:1001F0008B4201D34B00C01A5241411A00D2014632
:10020000524110467047FFE701B5002000F006F8A4
:1002100002BDC0460029F7D076E770477047C04658
:10022000002B11D1002A0FD1002900D1002802D0C3
:100230000021C943080007B4024802A140180290F7
:1002400003BDC046D9FFFFFF03B4684601B502985D
:1002500000F034F8019B9E4602B00CBC7047C046CB
:10026000F0B5CE46474680B5070099463B0C9C4604
:1002700013041B0C1D000E0061460004140C000C3E
:1002800045434B4360436143C0182C0C20188C46F7
:10029000834203D980235B029846C444494679438C
:1002A0007243030C63442D042D0CC918000440193B
:1002B0008918C0BCB946B046F0BDC046F0B5574637
:1002C0004E464546DE46E0B504000D00924699468E
:1002D00083B08B4230D82DD04946504600F0BAF852
:1002E00029000600200000F0B5F8331A9846203B9C
:1002F0009B4633D45A465346934042461F005346CA
:1003000093401E00AF423AD8AF4200D178E05B463E
:10031000A41BBD41002B00DA75E0002200230092EF
:10032000019301235A46934001930123424693408F
:10033000009328E08242CFD900220023009201934B
:100340000C9B002B01D01C605D600098019903B0EC
:10035000F0BCBB46B246A946A046F0BD42462023AB
:100360009B1A5246DA40414613004A468A4017001B
:1003700042461F43534693401E00AF42C4D9002259
:100380000023009201934346002BD9D0FB0772084B
:100390001A4346467B080EE0AB4201D1A2420CD87C
:1003A000A41A9D41012024196D410021013E241809
:1003B0004D41002E06D0AB42EED9013E24196D41CD
:1003C000002EF8D1009801995B4600196941002B75
:1003D00024DB2B005A464446D3402A00E2401C004E
:1003E0005B461500002B2ADB26009E4033002600CA
:1003F0004746BE403200801A9941009001919FE724
:10040000A342BCD883E74246202300219B1A002246
:10041000009101920122DA40019286E742462023B0
:100420009B1A2A0046469A402300F3404446134351
:100430002A00E2401C005B461500002BD4DA42463D
:100440002F002023260097409B1ADE403B003343B9
:10045000CDE7C04610B5002903D100F007F82030E1
:1004600002E0080000F002F810BDC0461C21012384
:100470001B04984201D3000C10391B0A984201D387
:10048000000A08391B09984201D30009043902A265
:10049000105C40187047C0460403020201010101CC
:1004A0000000000000000000F0B5C64600B58AB0AC
:1004B0001422002105A802F0E1F82D4BD96A04228C
:1004C0001143D962D96A0A400192019AD96A8022FD
:1004D0001143D962D96A0A400292029ADA6A012764
:1004E0003A43DA62DA6A3A400392039AD96A0222FC
:1004F0001143D962DB6A1A400492049B80231B02D9
:1005000098461C4E00221900300001F0B9FA8023F1
:10051000DB010593032506950024079405A9300007
:1005200001F0E6F94346059306970794089405A958
:10053000300001F0DDF905950695079405A90E48F0
:1005400001F0D6F90D4B059306950794A02005A957
:10055000C00501F0CDF90A4B05930695079405A94E
:10056000084801F0C5F90AB080BCB846F0BDC046E5
:100570000010024000080050001C0050F9990000D3
:100580003FF300000004005010B50268034B9A428C
:1005900000D010BD00F0F2FBFBE7C04600100040A9
:1005A00072B6FEE700B583B008220021684602F06B
:1005B00065F82348234B03600023C3638022D205E0
:1005C00042608360836301220261C3601F328354EF
:1005D000013283548362C222FF324262963AFF3A6A
:1005E0008354283A4261036383614363C36100F02B
:1005F0005DFA00281CD1144B009380235B0101930A
:1006000069460F4800F048FB002813D10F4B0093B8
:1006100069460B4800F040FB00280DD10C4B0093BD
:100620006946074800F038FB002807D103B000BD39
:10063000FFF7B6FFFFF7B4FFFFF7B2FFFFF7B0FF1A
:1006400028000020002401400200000404000008EB
:100650000000044810B51248124B0360124B43606F
:10066000002383600122C260036143618361C3612F
:10067000036200F095FB00280CD10021084800F02F
:10068000F5FB002808D10021054800F01BFC0028DC
:1006900004D110BDFFF784FFFFF782FFFFF780FF53
:1006A00084000020005400400F09000010B50A48E3
:1006B0000A4B036000234360E02212018260084A73
:1006C000426103624362836201F01CFA002800D198
:1006D00010BDFFF765FFC046D0000020007C004041
:1006E000FFFF000010B50B480B4B03600B4B436042
:1006F00080235B0583600023C36003610C22426199
:1007000083610362436201F0BBFC002800D110BD8D
:10071000FFF746FF0001002000480040243303009B
:1007200010B50B480B4B0360E1235B0243600023D1
:100730008360C36003610C2242618361C361036211
:10074000436201F09DFC002800D110BDFFF728FF97
:10075000A80100200038014010B50F480F4B03607E
:10076000002343607F2282608032C260C022D203B5
:10077000026143618361C36101F058FE002807D123
:1007800004227821044801F0BDFE002802D110BDEA
:10079000FFF706FFFFF704FF840100200028004058
:1007A00000B59BB0342200210DA801F067FF142290
:1007B000002108A801F062FF1C22002101A801F01D
:1007C0005DFF22490B68224A1A4080231B01134314
:1007D0000B600A230D93093B109310221192129380
:1007E000013316930023179318938023DB03199387
:1007F0000DA800F0E9FB002822D10F2308930C3B41
:10080000099300230A93C022D2000B920C9301217A
:1008100008A800F05FFE002814D1AD230193002347
:1008200003930593069380239B0202938023DB02AC
:10083000079301A800F080FF002805D11BB000BD80
:10084000FFF7AEFEFFF7ACFEFFF7AAFE0070004018
:10085000FFE7FFFF10B500F07DFAFFF7A1FFFFF7FC
:1008600023FEFFF79FFEFFF7F5FEFFF71FFFFFF7E1
:1008700039FFFFF755FFFFF76FFFFEE7FEE7FEE7E3
:10088000704770477047000010B5024801F0B8FC8F
:1008900010BDC04630020020054B5A6B01210A43AF
:1008A0005A63996B802252050A439A637047C04687
:1008B0000010024010B586B004001422002101A8E7
:1008C00001F0DCFE22680E4B9A4201D006B010BD4A
:1008D0000C4B596B802292000A435A63D96A012259
:1008E0001143D962DB6A1A400092009B06230193F0
:1008F000033B0293A02001A9C00500F0F9FFE5E742
:10090000002401400010024010B586B004001422FB
:10091000002101A801F0B2FE2268104B9A4201D0DA
:1009200006B010BD0E4CE26A02231A43E262E26A8C
:1009300013400093009BC0230193AE3B02930F3BF7
:100940000493023B059301A9064800F0D1FFA26B76
:1009500080239B031343A363E2E7C0460054004097
:1009600000100240000400500268054B9A4200D07B
:100970007047044A916B80231B060B439363F7E790
:10098000007C00400010024010B588B00400142222
:10099000002103A801F072FE2368204A934204D08C
:1009A0001F4A93421CD008B010BD1E4B996B802289
:1009B000D2020A439A63D96A02221143D962DB6ADE
:1009C00013400193019BC0231B0103930492032353
:1009D00006930133079303A9134800F089FFE2E768
:1009E000104B596B8022D2010A435A63D96A012203
:1009F0001143D962DB6A1A400292029BC023DB00DA
:100A00000393022304930133069301330793A02039
:100A100003A9C00500F06CFFC5E7C04600480040D0
:100A200000380140001002400004005010B586B0AC
:100A300004001422002101A801F020FE22680C4BC2
:100A40009A4201D006B010BD0A4B196D8022D20225
:100A50000A431A65D96A04221143D962DB6A1A4033
:100A60000092009B01A9044800F042FFEAE7C0465B
:100A700000280040001002400008005010B582B06D
:100A80000400084B18680849FFF73EFB44430194F3
:100A900002E0019B013B0193019B002BF9D102B0C5
:100AA00010BDC0460800002040420F0070B5041E73
:100AB00000D1E2E0436D002B30D0636DDB0633D410
:100AC00022689168042005000D4008422CD1616D18
:100AD0006B4B19400633FF3319436165916801334D
:100AE0000B40012B29D06368C02109068B4228D016
:100AF0008021C9058B4224D0802109068B4220D059
:100B000013699B009B0813615E4B1A685E490A409B
:100B10001A601A6861680A431A601BE083655022F4
:100B20008354FFF7C7FEC8E7636D10221343636564
:100B300050230022E254012070BD1368DB0713D458
:100B4000D1E713699B009B081361226813696168F0
:100B50000B4313612268D36818218B43D36022684A
:100B6000D368A1680B43D360464A136847490B40DA
:100B700013601368616B49060B43136023689A681E
:100B8000D20004D49968802252050A439A602368EF
:100B9000DA683F490A40DA602068C268E368216980
:100BA00002292DD02B432021615C49030B432C21CA
:100BB000615C49000B43216B0B43A16989030B4323
:100BC000E169C9030B431343C360636AC222FF3266
:100BD000934205D02168CA68A06A03431343CB60DF
:100BE0002123E35C012B0DD0E36B012B1ED0236886
:100BF0001A69D2072DD51A6901218A431A6128E0A2
:100C00000425CFE71F33E35C002B06D12268D168AF
:100C100080235B020B43D360E6E7636D202213431E
:100C20006365A36D1F3A1343A365DDE7226813696B
:100C300018490B40136121680A69236C606C0343F7
:100C4000A06C034313430B612268136901210B431A
:100C500013612268536907218B43536122685369EA
:100C6000A16B0B4353610023A365636D0322934380
:100C7000023A1343636500205EE701205CE7C0464B
:100C8000FDFEFFFF08270140FFFFC3FFFFFFFFFD41
:100C90001902FEFF03FCFFFF70B504000D00502396
:100CA000C35C012B4BD050230122C25403689A68C5
:100CB00052071AD4234A4968914229D0996A2A686E
:100CC0005203520B0A439A622B685B0316D42B68BB
:100CD0009B0305D51C4A11688023DB030B4313607B
:100CE00050230022E254002070BD436D20221343A4
:100CF000436550230022C2540120F5E7124A1168CF
:100D000080231B040B4313600A20FFF7B7FEDEE7C6
:100D1000996A2A685203520B914399622B685B03CC
:100D200004D5094A136809490B4013602B689B03DB
:100D3000D6D5054A136806490B401360D0E7022058
:100D4000D2E7C0460110000008270140FFFF7FFFE7
:100D5000FFFFBFFF10B5084A136840210B43136023
:100D6000032001F0DFFA041E02D00124200010BD90
:100D7000FFF792FDFAE7C04600200240034A1168DF
:100D8000034B1B785B1813607047C0462C02002091
:100D900000000020014B18687047C0462C0200205C
:100DA00010B5041E59D04123C35C002B43D041230E
:100DB0002422E2542268136801218B4313602268C5
:100DC000274B61680B4013612268936825490B40EB
:100DD0009360E368012B34D0226884231B02A1684E
:100DE0000B439360E368022B32D0226851681E4B9C
:100DF0000B4353602268D3681A490B40D3602369C0
:100E000062691343A269120221681343CB6022680E
:100E1000E369216A0B4313602268136801210B43C5
:100E200013600023636441221F31A1542363013204
:100E3000A354002010BD40330022C254FFF764FDCC
:100E4000B5E7226880231B02A1680B439360C9E7C2
:100E50002368802212015A60C7E70120EAE7C046F2
:100E6000FFFFFFF0FF7FFFFF00800002F0B541238E
:100E7000C35C202B20D12033C35C012B1ED0402427
:100E800001220255412524234355066833689343C4
:100E90003360066833680A4F3B4033600668336846
:100EA0001943316001680B6813430B6020234355DD
:100EB000002303550020F0BD0220FCE70220FAE7E2
:100EC000FFEFFFFFF0B54123C35C202B1ED1203381
:100ED000C35C012B1CD04024012202554125242350
:100EE0004355066833689343336006683368094F97
:100EF0003B4009021943316001680B6813430B60E2
:100F000020234355002303550020F0BD0220FCE7B9
:100F10000220FAE7FFF0FFFF10B5264BDA680C233A
:100F20001340082B42D00C2B11D0042B09D0214B9D
:100F30005A68520B07231340013380200002984067
:100F400010BD1C4B1B68DB0632D51B48F8E7910C23
:100F50000F230B401949C85C920D03231A40541CFF
:100F6000144BDB68DB0309D5154A00230021FFF78A
:100F700077F922000023FFF753F9E1E70D4B1B68D7
:100F8000DB0609D50C4A00230021FFF769F922008E
:100F90000023FFF745F9D3E70A4A00230021FFF7B2
:100FA0005FF922000023FFF73BF9C9E70448C7E7D0
:100FB0000448C5E70010024000093D00042700086E
:100FC00000127A000024F400F0B583B0041E00D1B2
:100FD0005DE2C14BDA680C251540DE6880235B02B8
:100FE0001E400368DB0736D5082D2CD00C2D28D0E9
:100FF00063688022520293424DD0A022D2029342D3
:1010000050D0B54B1A68B5490A401A601A68802159
:1010100049020A400192019A1A68B1490A401A60CD
:101020006368002B4AD0FFF7B5FE0700AA4B1B6888
:101030009B0310D4FFF7AEFEC01B6428F6D9032033
:1010400026E2002ED4D0A44B1B689B0303D5636813
:10105000002B00D11EE223689B0765D5E368042DB1
:101060003CD00C2D38D0002B00D1B0E09A490A6852
:101070000920824313430B60FFF78CFE0600964B5A
:101080001B685B0700D599E0FFF784FE801B0228F0
:10109000F5D90320FCE1904A116880235B020B43E1
:1010A0001360BDE78C4B19688022D2020A431A6094
:1010B0001968802252020A431A60B1E7FFF76AFEFC
:1010C0000700854B1B689B03C5D5FFF763FEC01B5C
:1010D0006428F6D90320DBE1002EC4D17E4A1268D1
:1010E000520702D5002B00D1D6E17B4E72687D49B4
:1010F0000A40216909020A437260326809218A4361
:1011000013433360FFF708FFF26812090F231340FF
:10111000754AD35CD840754B1860754B186801F060
:1011200001F9002800D0B3E12368DB062DD5002D9E
:1011300060D1694B1B689B0503D5A369002B00D1C7
:10114000ACE1654A53686B490B40216A0B4353601D
:1011500053681B021B0AE16909060B435360236AAB
:10116000590B013180231B028B40D16809090F22E2
:101170000A405D498A5CD3405C4A13605C4B186846
:1011800001F0D0F8002800D082E123681B077DD54C
:101190006369002B67D0504A136D01210B4313651F
:1011A000FFF7F8FD06004C4B1B6D9B076ED4FFF755
:1011B000F1FD801B0228F6D9032069E146494B68FE
:1011C000484A13402269120213434B60ACE7424A7B
:1011D000136801218B431360FFF7DCFD06003E4BD3
:1011E0001B685B07A0D5FFF7D5FD801B0228F6D949
:1011F00003204DE1A369002B22D0374A11688023D8
:101200005B000B431360FFF7C5FD0600324B1B6804
:101210009B0506D4FFF7BEFD801B0228F6D90320EC
:1012200036E12D4A536833490B40216A0B43536022
:1012300053681B021B0AE16909060B435360A4E7CC
:10124000254A13682C490B401360FFF7A3FD0600E5
:10125000214B1B689B0598D5FFF79CFD801B02283E
:10126000F6D9032014E11C4A136D01218B43136549
:10127000FFF790FD0600184B1B6D9B0706D5FFF787
:1012800089FD801B0228F6D9032001E123685B0752
:1012900000D48EE0104B9B6BDB001BD40E4A916B8D
:1012A00080235B050B4393630126144B1B68DB050E
:1012B00028D5A36880225200934237D0002B4DD10D
:1012C000054B1A6D0C490A401A651A6D0C490A4003
:1012D0001A6531E00026E8E700100240FFFFFEFF3C
:1012E000FFFFFBFFFFE0FFFFEC26000808000020E7
:1012F00004000020FF1FFFFFFFFEFFFF0070004003
:10130000FFFBFFFF6B4A116880235B000B431360F8
:10131000FFF740FD0700674B1B68DB05C9D4FFF7EB
:1013200039FDC01B6428F6D90320B1E0624A116D73
:1013300080235B000B431365A368002B28D0FFF7C5
:1013400029FD07005C4B1B6D9B0530D4FFF722FD88
:10135000C01B5A4B9842F5D9032099E0A022D20035
:10136000934209D0544B1A6D55490A401A651A6DBB
:1013700054490A401A65DFE74F4B196D013AFF3AAD
:101380000A431A65196D802252000A431A65D3E791
:10139000FFF700FD0700484B1B6D9B0507D5FFF7C6
:1013A000F9FCC01B454B9842F5D9032070E0012E93
:1013B0001AD0636A002B00D172E00C2D4FD0022BA3
:1013C00018D03D4A136840490B401360FFF7E2FC18
:1013D0000400394B1B689B013FD5FFF7DBFC001B6A
:1013E0000228F6D9032053E0334A936B37490B4068
:1013F0009363DEE7304A136833490B401360FFF70D
:10140000C9FC05002C4B1B689B0106D5FFF7C2FCED
:10141000401B0228F6D903203AE02749CB682C4A22
:101420001340A26AE06A0243206B02431343CB607D
:101430000A6880235B0413430B60FFF7ABFC0400D6
:101440001D4B1B689B0106D4FFF7A4FC001B022860
:10145000F6D903201CE000201AE0002018E0012B40
:1014600020D0154BDA6880235B021340A16A8B42BF
:101470001AD1F0239B031340E16A8B4216D1C0239B
:101480001B041A40236B9A4212D1002000E0012075
:1014900003B0F0BD0120FBE70120F9E70120F7E7E9
:1014A0000020F5E70120F3E70120F1E70120EFE755
:1014B0000120EDE70070004000100240881300009A
:1014C000FFFEFFFFFFFBFFFFFFFFFFFEFFFFFFEF42
:1014D000FFFF02FF70B505000C00002800D1D1E02D
:1014E0006A4B1A68012313408B4219D32B689B0760
:1014F00006D5674AD368F0218B43A9680B43D360B4
:101500002B68DB077BD56B68022B20D0032B40D0E8
:10151000012B44D05E4A126892051DD4012099E047
:101520005A4A136801218B4323431360FFF732FCAF
:101530000600564B1A6801231340A342D6D0FFF78A
:1015400029FC801B534A9042F3D9032082E0504A81
:101550001268920300D497E04D49CA680320824381
:101560001343CB60FFF716FC06006B68022B1CD000
:10157000032B28D0012B34D0454BDB680C221A42B8
:101580003DD0FFF707FC801B424B9842F4D9032063
:1015900060E03F4A12689201DED401205AE03C4AE2
:1015A00012685207D8D4012054E0394BDA680C2372
:1015B0001340082B23D0FFF7EDFB801B354A9042E8
:1015C000F3D9032046E0324BDA680C2313400C2B8E
:1015D00015D0FFF7DFFB801B2E4B9842F3D9032079
:1015E00038E02B4BDA680C231340042B07D0FFF7AD
:1015F000D1FB801B274B9842F3D903202AE0234BD1
:101600001A6801231340A34225D82B685B0706D52F
:101610001F4AD36820490B40E9680B43D3602B680D
:101620001B0707D51A49CB681C4A13402A69D20008
:101630001343CB60FFF770FC154BDA6812090F23D8
:101640001340174AD35CD840164B1860164B1868E5
:1016500000F068FE70BD0D4A136801218B432343DF
:101660001360FFF797FB0600084B1A68012313402D
:10167000A342CAD0FFF78EFB801B064B9842F3D9DA
:101680000320E7E70120E5E70120E3E7002002402F
:101690000010024088130000FFF8FFFFFFC7FFFFA4
:1016A000EC2600080800002004000020014B186808
:1016B0007047C0460800002010B5FFF7F7FF044B45
:1016C000DA68120A07231340024AD35CD84010BDDF
:1016D00000100240FC26000810B5FFF7E7FF044B9E
:1016E000DA68D20A07231340024AD35CD84010BDFF
:1016F00000100240FC26000830B50F2303600C4A9E
:10170000D4680C3B23404360D468F02323408360BB
:10171000D468E025ED002C40C460D368DB082B4082
:101720000361044B1A68012313400B6030BDC046AF
:10173000001002400020024070B5040003689B06C0
:101740004FD5614B9B6BDB0000D57EE05E4A916B11
:1017500080235B050B43936301255C4B1B68DB0512
:1017600000D474E0584B1968C0239B031940626889
:1017700013408B4206D0C0239B02110019409942AE
:1017800000D179E0504B196DC0239B02080018402E
:10179000194215D01A40824212D023689B060FD5F9
:1017A000494B186D4A4A02401E6D8021090331439E
:1017B0001965196D474E314019651A65C30562D424
:1017C0006368C02292021900114091426AD03E49DA
:1017D0000B6DC02292026068024013430B65012D1D
:1017E0006AD02368DB0706D5374AD36C03218B43C5
:1017F000A1680B43D36423689B0706D5324AD36C98
:101800000C218B43E1680B43D36423685B0706D547
:101810002D4AD36C30490B4021690B43D3642368B4
:101820001B0706D5284AD36C2C490B4061690B4332
:10183000D36423681B0645D5234AD36C28490B4043
:10184000A1690B43D364002070BD002585E71F4AC2
:10185000116880235B000B431360FFF79BFA0600BF
:101860001A4B1B68DB0500D57CE7FFF793FA801B5A
:101870006428F5D90320E7E7134B1B689B0300D4CA
:1018800080E70120E0E7FFF785FA06000E4B1B6DAD
:101890009B0595D4FFF77EFA801B124B9842F5D931
:1018A0000320D1E708490A680F480240C02080039E
:1018B000034013430B608AE70A008B6B0B490B4014
:1018C00093638EE70020BFE70010024000700040E5
:1018D000FFFFFCFFFFFFF7FFFFF3FFFFFFCFFFFF5F
:1018E000FFFFF3FF88130000FFFFCFFFFFFFFFEFB5
:1018F000F0B5002357E084685F000326BE40B44380
:101900002600CC68BC4034438460446894434A68F1
:101910001609012232409A402243426053E0DC081B
:101920000834A400265805321A4092000F27974029
:10193000BE430F6997403A003243225057E00526D4
:1019400000E00026A64034003C4302329200454E9F
:101950009451454A1468EA432600AE434F68FF039A
:1019600001D52C432600404C2660646826001640B2
:101970004F68BF0301D52C4326003B4C6660A4682A
:10198000260016404F68FF0201D52C432600364C36
:10199000A660E46822404E68B60201D52A002243C0
:1019A000314CE26001330C682200DA4058D0012249
:1019B0009A40250015401442F4D003244E68344068
:1019C000013C012C97D903224C682240032A09D0FC
:1019D000C2685E000324B440A24314008A68B24087
:1019E0002243C26003224C682240022A97D0046836
:1019F0005E0003221700B740BC434F683A40B24034
:101A000022430260C02292024C681442CAD0174C92
:101A1000626B0126324362639A08941CA400114E43
:101A2000A75903261E40B4000F26A640B743A026A0
:101A3000F605B04285D00E4EB0420BD00D4EB042EE
:101A40000AD00D4EB04209D00C4EB04200D176E71C
:101A5000062677E7012675E7022673E7032671E776
:101A6000F0BDC046000001400004014000100240EB
:101A70000004005000080050000C0050001C0050F2
:101A8000002A01D0816170478162FCE770B50028AF
:101A900011DB8308134EC0339B009D590324204063
:101AA000C000FF2214008440A54389010A408240FF
:101AB0002A439A5170BD0F230340083B9B0806330D
:101AC0009B00094A944663445C6803221040C000AE
:101AD000FC3215008540AC4389010A408240224314
:101AE0005A60E7E700E100E000ED00E0002805DBD8
:101AF0001F2318401E3B8340014A13607047C046B5
:101B000000E100E0F8B5041E47D02E23C35C002B93
:101B10003DD02E230222E2542568EB68606801283C
:101B200004D080221204A16A914201D11E22934363
:101B300061691B4A914201D01A4A13401A4A1A405D
:101B4000A3680343266A3343666A3343A66A334372
:101B50001343002803D1E26927693A43134301285C
:101B600003D080221204964203D1E2682069024326
:101B700013430B4A914204D0A2691143E269114315
:101B80000B43EB602E230122E2540020F8BD2D33DD
:101B90000022C254FEF7E8FEBBE70120F6E7C0468C
:101BA000FFFF00003F1FFFFFFEF119FFD0B504004B
:101BB000016883680269134342691343C26913438E
:101BC0000A689648024013430B60226853689449A0
:101BD0000B40E1680B435360A1692268914B9A4224
:101BE00001D0236A194393688F4803400B439360E5
:101BF00022688E4B9A4216D08D4B9A4224D0894B44
:101C00009A4232D0102387498A425CD0E069802210
:101C10001202904200D193E0082B00D9F7E09B001C
:101C2000844AD3589F46844BD96C03230B40022B24
:101C300033D005D8002B32D0012B32D10333E2E769
:101C4000032B30D10533DEE77B4BD96C0C230B40E3
:101C5000082B2AD005D8002B29D0042BD3D0102351
:101C6000D1E70C2B25D1043BCDE7734BDB6CC021B6
:101C700009010B40802109018B421CD007D8002BA1
:101C80001BD08021C9008B4219D10423BBE7C0219E
:101C900009018B4215D10823B5E70223B3E70123DD
:101CA000B1E71023AFE71023ADE70223ABE7002332
:101CB000A9E71023A7E70223A5E70023A3E7102342
:101CC000A1E710239FE7042B35D00BD8002B2CD095
:101CD000022B05D1584B1B68DB062FD4574805E073
:101CE000012073E0082B1ED180200002626853009F
:101CF0009B18834200D97EE01303834200D27CE02C
:101D0000070E060250080021801979410023FEF7D2
:101D100087FA4B4BC2184B4B9A4200D96FE02368AD
:101D2000D860002052E0012050E0FFF7C5FC0028F9
:101D3000DCD100204AE0FFF7EFF8F8E74248D5E7AA
:101D4000082B5ED89B00414AD3589F46FFF7B4FC4E
:101D5000002858D0400063685B08C0186168FEF72F
:101D6000D3F983B20004000C01001039384A9142C3
:101D70004BD80F2293431A00400807231840104302
:101D80002368D860002021E0FFF7A6FCE0E72A4B9B
:101D90001B68DB0604D42948DCE7FFF7BDF8D7E76A
:101DA0002948D7E7FFF788FC002832D063685B0832
:101DB00018186168FEF7A8F90004000C0200103A38
:101DC000234B9A4227D82368D860002000236366FB
:101DD000A366D0BDFFF780FCE6E7174B1B68DB0668
:101DE00007D41648E2E7FFF797F8DDE78020000206
:101DF000DCE71548DAE70120E8E70120E6E7012003
:101E0000E4E70120E2E70020E0E70120DEE701202F
:101E1000DCE70020DAE70120D8E7C046F369FFEFEE
:101E2000FFCFFFFF00480040FFF4FFFF00380140F4
:101E300000440040A4260008001002400024F400E2
:101E400000FDFFFFFFFC0F0000093D00C826000851
:101E5000EFFF0000436ADB0706D5026853682C4990
:101E60000B40816A0B435360436A9B0706D50268A7
:101E7000536828490B40C16A0B435360436A5B07B0
:101E800006D50268536824490B40016B0B4353602D
:101E9000436A1B0706D50268536820490B40416B13
:101EA0000B435360436ADB0606D5026893681C49FE
:101EB0000B40816B0B439360436A9B0606D5026817
:101EC000936818490B40C16B0B439360436A5B06F0
:101ED0000BD50268536814490B40016C0B435360E7
:101EE00080235B03026C9A420AD0436A1B0606D524
:101EF000026853680D490B40816C0B435360704777
:101F0000026853680A490B40416C0B435360ECE78D
:101F1000FFFFFDFFFFFFFEFFFFFFFBFFFF7FFFFF58
:101F2000FFEFFFFFFFDFFFFFFFFFEFFFFFFFF7FF09
:101F3000FFFF9FFFF8B5CE46474680B506000D006F
:101F400017009946089B98463368DC692C40641B4F
:101F500063425C41BC4253D143460133F4D0FEF7A7
:101F600019FF4B46C01A40452CD84346002B29D0B8
:101F700033681A685207E7D5DA691205E4D580227A
:101F800012011A62EFF31080012282F31088316887
:101F90000B681E4C23400B6080F31088EFF3108019
:101FA00082F3108831688B6893438B6080F31088CC
:101FB0002023B367F3677F32B35054330022F254C7
:101FC00003201EE0EFF31080012282F310883168B5
:101FD0000B680E4C23400B6080F31088EFF31080E9
:101FE00082F3108831688B6893438B6080F310888C
:101FF0002023B367F36754330022F254032000E038
:102000000020C0BCB946B046F8BDC0465FFEFFFF29
:1020100030B583B0040080230022C250FEF7BAFE20
:1020200005002268126813070DD423681B685B073C
:1020300016D42023A367E367002323667422A354E6
:10204000002003B030BD80210C4B00930300002220
:1020500089032000FFF76EFF0028E6D00320F0E799
:102060008021064B00932B000022C9032000FFF7BC
:1020700061FF0028DDD00320E3E7C046FFFFFF013A
:1020800010B5041E2ED0836F002B21D02423A3670C
:102090002268136801218B4313602000FFF786FD3F
:1020A000012814D0636A002B18D1226853680E49A6
:1020B0000B405360226893682A218B439360226807
:1020C000136829390B4313602000FFF7A1FF10BDEF
:1020D00074330022C254FEF757FCD7E72000FFF705
:1020E000B9FEE2E70120F2E7FFB7FFFF03688022B5
:1020F000D205904205D0124A904202D0114A904235
:1021000003D1702293434A6813438022D205904240
:1021100005D00B4A904202D00A4A904203D10A4AA3
:102120001340CA681343802293430A691343036030
:102130008B68C3620B688362012343617047C046AA
:102140000008014000140140FFFCFFFF704770B51C
:10215000041E1ED03923C35C002B14D03925022362
:102160006355210001C9FFF7C1FF01233E22A3549B
:10217000043AA3540132A3540132A3540132A354AC
:102180006355002070BD38330022C254FFF7DEFFD4
:10219000E4E70120F6E700003923C35C012B23D1DB
:1021A00038330222C2540268D36801210B43D36042
:1021B00003688022D20593420BD00D4A934208D087
:1021C0000C4A934205D01A6801210A431A60002084
:1021D0000BE0996807220A40062A07D01A680121F5
:1021E0000A431A60002000E0012070470020FCE74D
:1021F0000008014000140140704770477047704765
:1022000010B5040003681A6992070FD5DA689207BF
:102210000CD5032252421A610123037603689B699D
:102220009B0755D0FFF7E9FF0023237623681A693F
:10223000520712D5DA6852070FD5052252421A61A9
:102240000223237623689A69C0239B001A4245D053
:102250002000FFF7D2FF0023237623681A691207B4
:1022600010D5DA6812070DD5092252421A610423EB
:1022700023762368DB699B0737D02000FFF7BDFF7B
:102280000023237623681A69D20612D5DA68D206AB
:102290000FD5112252421A61082323762368DA6986
:1022A000C0239B001A4227D02000FFF7A6FF00237F
:1022B000237623681A69D20702D5DA68D20722D4B6
:1022C00023681A69520602D5DA68520622D410BD74
:1022D000FFF792FF2000FFF791FFA5E72000FFF72F
:1022E0008BFF2000FFF78AFFB5E72000FFF784FF90
:1022F0002000FFF783FFC3E72000FFF77DFF2000EA
:10230000FFF77CFFD3E7022252421A612000FEF75A
:102310003BF9D5E7412252421A612000FFF76FFFD7
:10232000D5E7704730B587B00500002201001120C5
:10233000FFF7ACFB1120FFF7D9FB1B4A936B102171
:102340000B439363694601A8FFF7D6F9049B002B62
:1023500015D1FFF7B1F91549FDF7D6FE431E144814
:10236000144A0260144AC260436000230361836020
:10237000FFF7EDFE041E06D0200007B030BDFFF7CA
:102380009BF94000E7E70A48FFF706FF041EF3D178
:10239000032D01D90124EFE7002229001120FFF7C6
:1023A00075FB064B1D60E7E70010024040420F003E
:1023B0003002002000100040E7030000040000206D
:1023C00070B504000268D368A0218B43D360FEF788
:1023D000E1FC05002368DB689B0608D4FEF7DAFC05
:1023E000401BFA239B009842F4D9032000E0002010
:1023F00070BD70B504000368DA68520601D500208C
:1024000070BD01225242DA60FEF7C4FC0500236869
:10241000DB685B0608D4FEF7BDFC401BFA22920085
:102420009042F4D90320EBE70020E9E770B5041EE1
:1024300063D02123C35C002B41D021230222E2542C
:102440002368C8325A622368773A5A622000FFF73D
:10245000D0FF051E39D12268936829490B4093604B
:1024600021688A68636820690343A06903431343B2
:102470008B602368E2681A6121680B69A268120404
:1024800013430B612268D36880218B43D360226899
:10249000D36C7D398B43D3642168CB6CE26960696E
:1024A00002431343CB6423689B689B0615D52368BE
:1024B000FF225A622123FE3AE254280070BD2033E5
:1024C0000022C254FEF7B2FAB7E72368FF225A622D
:1024D0002123FB3AE2540125EFE72000FFF770FFCC
:1024E0000028E4D02368FF225A622123FB3AE254F9
:1024F000013B0022E2540125DFE70125DDE7C0466C
:10250000BFFF8FFFF8B506000C0015002023C35C49
:10251000012B61D020230122C25401330132C25465
:102520000368C8325A620368773A5A6203689B6844
:102530005B0518D5FEF72EFC07003368DB685B07E8
:1025400011D5FEF727FCC01BFA239B009842F4D953
:102550003368FF225A622123FC3AF254013B0022E5
:10256000F254032037E0326893681C490B409360B3
:10257000FEF710FC07003368DA68520711D4FEF743
:1025800009FCC01BFA2292009042F4D93368FF2262
:102590005A622123FC3AF254013B0022F2540320F8
:1025A00019E09A6807218A439A6033689A6815434C
:1025B0009D6033685C61326891688023DB000B4367
:1025C00093603368FF225A622123FE3AF254013BA2
:1025D0000022F2540020F8BD0220FCE7FFFBFFFFC1
:1025E0000D4885460D480E490E4A002302E0D45896
:1025F000C4500433C4188C42F9D30B4A0B4C00234B
:1026000001E013600432A242FBD3FFF78AFE00F020
:1026100011F8FEF71FF9FEE700200020000000205F
:102620000C000020202700080C0000207002002071
:10263000FEE7000070B500260C4D0D4C641BA41085
:10264000A64209D1002600F021F80A4D0A4C641B6D
:10265000A410A64205D170BDB300EB5898470136CF
:10266000EEE7B300EB5898470136F2E71827000869
:1026700018270008182700081C27000803008218E4
:10268000934200D1704719700133F9E7F8B5C0469D
:10269000F8BC08BC9E467047F8B5C046F8BC08BCFC
:0426A0009E4670479B
:1026A400A41D0008D41D0008DA1D00080E1E000831
:1026B400E61D00080E1E00080E1E00080E1E00086F
:1026C400EC1D00084C1D0008881D00088E1D000824
:1026D400021E00089A1D0008021E0008021E0008BF
:1026E400021E0008541D0008000000000000000045
:1026F40001020304060708090000000001020304A4
:0C270400030406080C1018203000000030
:08271000ACDBFF7F01000000BB
:04271800E9000008CC
:04271C00C1000008F0
:0C27200001000000040000000000200088
:04000005080025E1E9
:00000001FF
